:100000000C942A000C9447000C9447000C94470071
:100010000C9447000C9447000C9447000C94470044
:100020000C9447000C9447000C9447000C94470034
:100030000C9447000C9447000C9447000C94470024
:100040000C9447000C9447000C9447000C94470014
:100050000C94470011241FBECFE5D8E0DEBFCDBF12
:1000600010E0A0E6B0E0E6E2F3E002C005900D92F9
:10007000AA36B107D9F720E0AAE6B0E001C01D9288
:10008000AA36B207E1F70E9449000C9491010C9442
:100090000000CF92DF92EF92FF920F931F93CF93C6
:1000A000DF93CDB7DEB760970FB6F894DEBF0FBE13
:1000B000CDBF81B38F7781BB81B38F7B81BB81EC57
:1000C00081BBE12CF12C80E090E000E010E0C12C3D
:1000D000D12C02C080E090E0879B0BC00115110578
:1000E00059F424E022BB2FEFC21AD20A01E010E03B
:1000F00003C012BA00E010E0869BECCF009761F7D6
:100100008FEFE81AF80A9AE0E916F1040CF440C0FF
:10011000C601880F991FC80ED91ECC0CDD1C4AE001
:10012000BE016F5F7F4FC6010E945C012BE0C216CB
:10013000D104BCF060E875E280E090E00E94F2003B
:10014000CE0101960E9424018FEF93ED20E38150B0
:1001500090402040E1F700C0000080E00E942001B4
:1001600030C060E875E280E090E00E94F20080E636
:1001700090E00E9424018FEF93ED20E381509040A6
:100180002040E1F700C0000080E00E94200119C07B
:1001900060E875E280E090E00E94F20084E690E082
:1001A0000E9424018FEF93ED20E381509040204086
:1001B000E1F700C0000080E00E94200181E090E0B3
:1001C0008BCF80E090E060960FB6F894DEBF0FBE54
:1001D000CDBFDF91CF911F910F91FF90EF90DF90F6
:1001E000CF9008952AB128612AB920B5266820BD8C
:1001F000DC01CB01880F991FAA1FBB1F880F991F15
:10020000AA1FBB1F9C01AD01220F331F441F551FA6
:10021000220F331F441F551F60E074E284EF90E00B
:100220000E943A018FEF820F89B9DA01C901019763
:10023000A109B109892F9A2FAB2FBB2780BD089543
:100240005D9BFECF8CB908950F931F93CF93DF93DF
:100250008C01C0E0D0E003C00E9420012196F8018B
:10026000EC0FFD1F80818111F7CFDF91CF911F919E
:100270000F910895A1E21A2EAA1BBB1BFD010DC010
:10028000AA1FBB1FEE1FFF1FA217B307E407F50746
:1002900020F0A21BB30BE40BF50B661F771F881F22
:1002A000991F1A9469F760957095809590959B01B8
:1002B000AC01BD01CF010895BB274A3031F4992329
:1002C00022F4BDE2909581959F4F0C946801BB2765
:1002D000FB015527AA27880F991FAA1FA41710F002
:1002E000A41B83955051B9F7A05DAA3308F0A95D0E
:1002F000A193009779F7B111B1931192CB010C94AE
:100300008101DC01FC01672F71917723E1F73297BE
:1003100004C07C916D9370836291AE17BF07C8F3E0
:060320000895F894FFCFE0
:0A0326004E2E4D002E2E2E2E2E001E
:00000001FF
