:100000000C942A000C943F000C943F000C943F0089
:100010000C943F000C943F000C943F000C943F0064
:100020000C943F000C943F000C943F000C943F0054
:100030000C943F000C943F000C943F000C943F0044
:100040000C943F000C943F000C943F000C943F0034
:100050000C943F0011241FBECFE5D8E0DEBFCDBF1A
:1000600010E0A0E6B0E0EEE0F3E002C005900D92F3
:10007000AA38B107D9F70E94BE000C9485010C94F0
:10008000000098B39E7F98BB98B39D7F98BB982F34
:10009000907F95BB95B3926095BBEFE9FFE03197F8
:1000A000F1F700C0000095B39D7F95BB8295807FDE
:1000B00085BB85B3826085BB8FE99FE00197F1F72F
:1000C00000C0000085B38D7F85BB089598B3916013
:1000D00098BB98B39D7F98BB982F907F95BB95B3A5
:1000E000926095BBEFE1FEE43197F1F700C00000AC
:1000F00095B39D7F95BB8295807F85BB85B38260DC
:1001000085BB8FE19EE40197F1F700C0000085B345
:100110008D7F85BB08950F931F93CF93DF938C0141
:10012000C0E0D0E003C00E9466002196F801EC0F09
:10013000FD1F80818111F7CFDF91CF911F910F912A
:1001400008959FEF94BB84B3826084BB97BB85B353
:100150008D7F85BB83E30E94410082E30E944100C2
:1001600088E20E9441008CE00E94410080E690E01D
:100170000E948B0080EC0E9441000895CF93DF9392
:10018000CDB7DEB760970FB6F894DEBF0FBECDBF18
:1001900081B38F7781BB81B38F7B81BB81E081BBD2
:1001A0000E94A100C12CD12C00E010E080E090E082
:1001B000E12CF12CA12CB12C02C080E090E0879BB7
:1001C0000CC0E114F10461F421E022BB2FEFA21A6C
:1001D000B20AEE24E394F12C03C012BAE12CF12C04
:1001E000869BEBCF009759F78FEFC81AD80A2AE001
:1001F000C216D1040CF442C00115110541F4850169
:10020000000F111F0A0D1B1D000F111F0FC0C5018C
:10021000880F991F8A0D9B1D880F991F080F191FA2
:10022000112314F40F5F1F4F159507954AE050E016
:10023000BE016F5F7F4FC8010E94450181E00E94AF
:1002400041000B30110564F08EE690E00E948B00B7
:10025000CE0101960E948B0080EC0E94410007C0F5
:1002600089E790E00E948B0080EC0E944100C12C45
:10027000D12C81E090E0A12CB12CA1CF87E890E0B7
:100280000E948B0081E090E09ACF4532510520F426
:10029000423010F00C945001FB011082CB01089504
:1002A000BB274A3031F4992322F4BDE29095819521
:1002B0009F4F0C945C01BB27FB015527AA27880F91
:1002C000991FAA1FA41710F0A41B83955051B9F7CA
:1002D000A05DAA3308F0A95DA193009779F7B11149
:1002E000B1931192CB010C947501DC01FC01672FD5
:1002F00071917723E1F7329704C07C916D937083FD
:0E0300006291AE17BF07C8F30895F894FFCFBF
:10030E0043414C43554C4154494E472020004156E1
:10031E00472042504D203A20004E4F542044455421
:0A032E00454354454421002E000011
:00000001FF
