:100000000C942A000C9434000C9434000C943400AA
:100010000C9434000C9434000C9434000C94340090
:100020000C9434000C9434000C9434000C94340080
:100030000C9434000C9434000C9434000C94340070
:100040000C9434000C9434000C9434000C94340060
:100050000C94340011241FBECFE5D8E0DEBFCDBF25
:100060000E9436000C9452000C9400008AB38E7FDC
:100070008ABB8AB38D7F8ABB88EF81BB89E685BD49
:100080008FEF83BDC89B06C088E282BBC899FECFB4
:1000900012BAF8CFC99BF6CF80E582BBC999FECFD3
:0800A00012BAF0CFF894FFCF73
:00000001FF
