S00C0000434F44452E73726563FD
S11300000C942A000C943C000C943C000C943C008E
S11300100C943C000C943C000C943C000C943C006C
S11300200C943C000C943C000C943C000C943C005C
S11300300C943C000C943C000C943C000C943C004C
S11300400C943C000C943C000C943C000C943C003C
S11300500C943C0011241FBECFE5D8E0DEBFCDBF19
S113006020E0A0E6B0E001C01D92A436B207E1F79B
S11300700E9452000C94EC000C94000080E487B9B8
S113008087E886B90895877097B1892B87B986B1B7
S1130090806486B9349BFECF86B1806186B984B111
S11300A095B108958AB382608ABB0E943E00809114
S11300B0600090916100A0916200B091630080E0C3
S11300C00E944300BC0180E090E00E94860060939F
S11300D0600070936100809362009093630060916C
S11300E0600070916100809162009091630020E053
S11300F030E0A9010E94C300181624F48BB3826077
S11301008BBBDDCF8BB38D7F8BBBD9CFE89409C07C
S113011097FB3EF490958095709561957F4F8F4F36
S11301209F4F9923A9F0F92F96E9BB279395F6954C
S1130130879577956795B795F111F8CFFAF4BB0FCA
S113014011F460FF1BC06F5F7F4F8F4F9F4F16C02E
S1130150882311F096E911C0772321F09EE8872FB8
S1130160762F05C0662371F096E8862F70E060E074
S11301702AF09A95660F771F881FDAF7880F9695ED
S1130180879597F908950E94C80008F48FEF0895A1
S1130190990F0008550FAA0BE0E8FEEF1616170694
S11301A0E807F907C0F012161306E407F50798F0FC
S11301B0621B730B840B950B39F40A2661F0232B15
S11301C0242B252B21F408950A2609F4A140A69591
S10F01D08FEF811D811D0895F894FFCF6E
S9030000FC
