:100000000C942A000C943F000C943F000C943F0089
:100010000C943F000C943F000C943F000C943F0064
:100020000C943F000C943F000C943F000C943F0054
:100030000C943F000C943F000C943F000C943F0044
:100040000C943F000C943F000C943F000C943F0034
:100050000C943F0011241FBECFE5D8E0DEBFCDBF1A
:1000600010E0A0E6B0E0ECEDF1E002C005900D92EA
:10007000A238B107D9F70E94DE000C94EC000C9472
:10008000000098B39F70282F207F922B98BB98B3C5
:100090009E7F98BB98B3926098BB35E03A95F1F794
:1000A000000098B39D7F98BBEFE1F3E03197F1F743
:1000B00000C0000028B3F0E18F9FC0011124922FEF
:1000C0009F70892B88BB88B3826088BB35E03A95E6
:1000D000F1F7000088B38D7F88BB8FE39FE1019724
:1000E000F1F700C00000089598B39F70282F207F7B
:1000F000922B98BB98B3916098BB98B3926098BBD1
:1001000035E03A95F1F7000098B39D7F98BBEFE199
:10011000F3E03197F1F700C0000028B3F0E18F9FC2
:10012000C0011124922F9F70892B88BB88B38260F5
:1001300088BB35E03A95F1F7000088B38D7F88BB26
:100140008FE39FE10197F1F700C0000008958FEF62
:1001500087BB2FEF89EF90E0215080409040E1F77E
:1001600000C0000082E00E94410088E20E9441003D
:100170008CE00E94410086E00E94410081E00E94E4
:1001800041008FE39FE10197F1F700C0000008955F
:100190000F931F93CF93DF938C01C0E0D0E003C097
:1001A0000E9474002196F801EC0FFD1F80818111DF
:1001B000F7CFDF91CF911F910F9108950E94A70073
:1001C00080E690E00E94C80080EC0E94410081E738
:0C01D00090E00E94C800FFCFF894FFCF21
:1001DC004155544F4D4154494320424F58494E4785
:1001EC0000545241494E494E47204D414348494ED7
:0201FC004500BC
:00000001FF
