S01100004156522031206E65772E737265636F
S11300000C942A000C9447000C9447000C9447006D
S11300100C9447000C9447000C9447000C94470040
S11300200C9447000C94A6030C9447000C944700CE
S11300300C9447000C9447000C9447000C94470020
S11300400C9447000C9447000C9447000C94470010
S11300500C94470011241FBECFE5D8E0DEBFCDBF0E
S113006010E0A0E6B0E0E0E7F9E002C005900D92F0
S1130070A037B107D9F720E0A0E7B0E001C01D9296
S1130080A637B207E1F70E941B010C94B6040C9446
S11300900000CF93DF93CDB7DEB760970FB6F89427
S11300A0DEBF0FBECDBF80E1E0E6F0E0DE011196D9
S11300B001900D928A95E1F78AB31ABA8BB38860DE
S11300C08BBB80EF87BB87EF88BB8BB388708BBB00
S11300D088B3877088BB99B386B3892B8F708F30B0
S11300E0A1F72FEF89EF90E0215080409040E1F795
S11300F000C0000099B386B3892B8F708F3089F3C9
S11301002FEF83EF91E0215080409040E1F700C051
S1130110000099B386B3892B8F708F3011F388E078
S11301208BBB87EE88BB99B386B3892B8F708F30D6
S113013009F588E08BBB87ED88BB99B386B3892B1F
S11301408F708F30C9F488E08BBB87EB88BB99B381
S113015086B3892B8F708F3089F488E08BBB87E757
S113016088BB99B386B3892B8F708F3009F4A4CFE1
S1130170E3E005C0E0E003C0E1E001C0E2E08E306E
S113018069F4F0E0EE0FFF1FEE0FFF1F81E090E037
S11301908C0F9D1FE80FF91F80812AC08D3069F4F0
S11301A0F0E0EE0FFF1FEE0FFF1F81E090E08C0FD9
S11301B09D1FE80FF91F81811BC08B3069F4F0E0AB
S11301C0EE0FFF1FEE0FFF1F81E090E08C0F9D1FCD
S11301D0E80FF91F82810CC0F0E0EE0FFF1FEE0F55
S11301E0FF1F81E090E08C0F9D1FE80FF91F8381B2
S11301F060960FB6F894DEBF0FBECDBFDF91CF91EE
S113020008950E94BD038B3591052CF408C00E940B
S113021038030E94BD038B359105CCF708958A35C8
S113022091052CF008950E946F030E94BD038A3546
S11302309105CCF308958FEB81BB12BA8FEF84BB89
S11302408AB381608ABB0E9401010E9449008F33F6
S1130250E1F38433F1F0873369F0813349F50E9487
S11302606F010E94A6010E94B9020E9414020E941A
S1130270E602F5CF0E94DD010E9414020E940F03E2
S11302800E9482020E94DD010E94E6020E94820214
S1130290F1CF0E944B020E9482020E94DD010E9463
S11302A0E6020E94DD010E9482020E941402F1CF44
S11302B080E090E0089580E487B987E886B90895DE
S11302C0877097B1892B87B986B1806486B9349BCE
S11302D0FECF86B1806186B984B195B1089584B3A7
S11302E0806284BB0E945B018091700090917100D8
S11302F0A0917200B091730085B3806285BB82E0E7
S11303000E946001BC0180E090E00E94F9036093C8
S113031070007093710080937200909373006091E9
S1130320700070917100809172009091730020E0D0
S113033030E0A9010E943604181624F485B38F7D99
S113034085BB089585B3806285BBD9CF84B38064AF
S113035084BB0E945B018091700090917100A09118
S11303607200B091730085B3806485BB81E00E9404
S11303706001BC0180E090E00E94F903609370008A
S11303807093710080937200909373006091700079
S113039070917100809172009091730020E030E0C0
S11303A0A9010E943604181624F485B38F7B85BBFB
S11303B0089585B3806485BBD9CF84B3806884BB3A
S11303C00E945B018091700090917100A091720075
S11303D0B091730085B3806885BB84E00E9460019E
S11303E0BC0180E090E00E94F90360937000709378
S11303F0710080937200909373006091700070910B
S11304007100809172009091730020E030E0A901A6
S11304100E943604181624F485B38F7785BB08959B
S113042085B3806885BBD9CF81B3816081BB0E94CD
S11304305B018091700090917100A0917200B09165
S1130440730082B3816082BB85E00E946001BC01BD
S113045080E090E00E94F903609370007093710053
S1130460809372009093730060917000709171009A
S1130470809172009091730020E030E0A9010E9405
S11304803604181624F482B38E7F82BB089582B397
S1130490816082BBD9CF81B3826081BB0E945B0142
S11304A08091700090917100A0917200B0917300DE
S11304B082B3826082BB86E00E946001BC0180E05E
S11304C090E00E94F9036093700070937100809330
S11304D0720090937300609170007091710080912C
S11304E072009091730020E030E0A9010E9436046C
S11304F0181624F482B38D7F82BB089582B3826080
S113050082BBD9CF81B3846081BB0E945B0180919F
S1130510700090917100A0917200B091730082B349
S1130520846082BB87E00E946001BC0180E090E0AF
S11305300E94F903609370007093710080937200BD
S113054090937300609170007091710080917200BB
S11305509091730020E030E0A9010E94360418163F
S113056024F482B38B7F82BB089582B3846082BB00
S1130570D9CF87B3886087BB18BA88B3886088BB33
S11305808FE99FE00197F1F700C0000088B318BA23
S11305909FEF29E688E1915020408040E1F700C0B8
S11305A0000088B3886088BB8FE697E10197F1F774
S11305B000C0000088B318BA9FEF29E688E1915083
S11305C020408040E1F700C00000089582B38062BB
S11305D082BB8FE99FE00197F1F700C0000082B36E
S11305E012BA9FEF29E688E1915020408040E1F75C
S11305F000C0000082B3806282BB8FE697E101975E
S1130600F1F700C0000082B312BA9FEF29E688E137
S1130610915020408040E1F700C00000089582B36B
S1130620806882BB8FE99FE00197F1F700C000006A
S113063082B312BA9FEF29E688E1915020408040AE
S1130640E1F700C0000082B3806882BB8FE697E1C7
S11306500197F1F700C0000082B312BA9FEF29E6B8
S113066088E1915020408040E1F700C000000895E7
S113067085E085BB2FEF35EA9EE021503040904065
S1130680E1F700C0000096E095BB2FEF35EA9EE04D
S1130690215030409040E1F700C000009AE095BB43
S11306A02FEF35EA9EE0215030409040E1F700C042
S11306B0000099E095BB2FEF35EA9EE021503040D1
S11306C09040E1F700C0000085BB2FEF35EA8EE0D3
S11306D0215030408040E1F700C00000089585E0DB
S11306E085BB2FEF35EA9EE0215030409040E1F782
S11306F000C0000099E095BB2FEF35EA9EE0215041
S113070030409040E1F700C000009AE095BB2FEF25
S113071035EA9EE0215030409040E1F700C00000EF
S113072096E095BB2FEF35EA9EE021503040904093
S1130730E1F700C0000085BB2FEF35EA8EE02150C1
S113074030408040E1F700C0000008951F920F92EE
S11307500FB60F9211248F939F9380917400909100
S11307607500019690937500809374009F918F910A
S11307700F900FBE0F901F901895789494E099BF36
S11307801FBC8BB381608BBB80E58A95F1F78BB37B
S11307908E7F8BBB1DBC1CBC81E48EBD80E288BFF8
S11307A098BF109275001092740008B605FEFDCF34
S11307B01DBC1CBC81E08EBD80E288BF84E088BF84
S11307C008B605FEFDCF46B557B5A0917400B091AB
S11307D075002FEF3FEF0E947E04640F751F811D8B
S11307E0911D2FE933E040E050E00E945F04C9010D
S11307F00895E89409C097FB3EF490958095709510
S113080061957F4F8F4F9F4F9923A9F0F92F96E958
S1130810BB279395F695879577956795B795F111CD
S1130820F8CFFAF4BB0F11F460FF1BC06F5F7F4F6A
S11308308F4F9F4F16C0882311F096E911C077237C
S113084021F09EE8872F762F05C0662371F096E885
S1130850862F70E060E02AF09A95660F771F881F54
S1130860DAF7880F9695879597F908950E943B04C7
S113087008F48FEF0895990F0008550FAA0BE0E8CC
S1130880FEEF16161706E807F907C0F0121613064E
S1130890E407F50798F0621B730B840B950B39F48E
S11308A00A2661F0232B242B252B21F408950A26F4
S11308B009F4A140A6958FEF811D811D0895052E91
S11308C097FB1EF400940E94760457FD07D00E9403
S11308D0850407FC03D04EF40C947604509540959F
S11308E0309521953F4F4F4F5F4F089590958095D8
S11308F0709561957F4F8F4F9F4F08950E94A70475
S1130900B7FF0895821B930B0895A1E21A2EAA1B28
S1130910BB1BFD010DC0AA1FBB1FEE1FFF1FA217AB
S1130920B307E407F50720F0A21BB30BE40BF50BA8
S1130930661F771F881F991F1A9469F76095709531
S1130940809590959B01AC01BD01CF010895A29FB4
S1130950B001B39FC001A39F700D811D1124911D8F
S1130960B29F700D811D1124911D0895F894FFCF3D
S11309703734312E3835323039363345504F4443CD
S9030000FC
