:100000000C942A000C9447000C9447000C94470071
:100010000C9447000C9447000C9447000C94470044
:100020000C9447000C9447000C9447000C94470034
:100030000C9447000C9447000C9447000C94470024
:100040000C9447000C9447000C9447000C94470014
:100050000C94470011241FBECFE5D8E0DEBFCDBF12
:1000600010E0A0E6B0E0E0E1F4E002C005900D92FF
:10007000AC38B107D9F720E0ACE8B0E001C01D9280
:10008000AE38B207E1F70E9493010C9406020C947B
:1000900000000F931F93CF93DF93CDB7DEB7279761
:1000A0000FB6F894DEBF0FBECDBF60E875E280E00A
:1000B00090E00E94B20140E750E060E070E082E032
:1000C00090E00E947B0100E010E00E94E001E1E08E
:1000D000F0E0EC0FFD1FE00FF11F80830F5F1F4F5B
:1000E0008111F3CFAE014F5F5F4F6AE070E082E0B5
:1000F00090E00E947B012FEF81EE94E02150804040
:100100009040E1F700C0000027960FB6F894DEBFDC
:100110000FBECDBFDF91CF911F910F91089580EF5A
:1001200084BB8FEF85BB85B38F7085BB83B38F7026
:1001300080938C008F30B9F72FEF89EF90E021503A
:1001400080409040E1F700C0000083B38F7080933F
:100150008C008F3089F32FEF89EF90E021508040A1
:100160009040E1F700C0000083B38F7080938C0053
:100170008F3011F38FEE85BB83B38F7080938C002B
:100180008F3019F010928D0024C08FED85BB83B3A2
:100190008F7080938C008F3021F081E080938D00F0
:1001A00018C08FEB85BB83B38F7080938C008F302A
:1001B00021F082E080938D000CC08FE785BB83B374
:1001C0008F7080938C008F3009F4A9CF83E08093E7
:1001D0008D0080918C008E3059F4E0918D00F0E01C
:1001E000EE0FFF1FEE0FFF1FE05AFF4F80810895B3
:1001F0008D3059F4E0918D00F0E0EE0FFF1FEE0F0F
:10020000FF1FE05AFF4F818108958B3059F4E09130
:100210008D00F0E0EE0FFF1FEE0FFF1FE05AFF4FC3
:1002200082810895E0918D00F0E0EE0FFF1FEE0F48
:10023000FF1FE05AFF4F8381089588BB8BB38F79EE
:100240008BBB8BB380688BBB85E08A95F1F7000090
:100250008BB38F778BBB8FED9EE20197F1F700C0D8
:100260000000089588BB8BB38F7B8BBB8BB3806AF8
:100270008BBB85E08A95F1F700008BB38F778BBB42
:100280008FE99FE00197F1F700C0000008958AB35D
:10029000806E8ABB8FEF87BB2FEF89EF90E02150F4
:1002A00080409040E1F700C0000088E30E941D01FB
:1002B0008CE00E941D0186E00E941D0181E00E94E9
:1002C0001D0180E80E941D0108950F931F93CF9395
:1002D000DF938C01C0E0D0E003C00E943201219680
:1002E000F801EC0FFD1F80818111F7CFDF91CF91D5
:1002F0001F910F910895CF93DF93EA01813031F47C
:10030000862F8F7080680E941D0107C0823029F4FB
:10031000862F8F70806C0E941D01CE010E946501A6
:10032000DF91CF91089560E875E280E090E00E944F
:10033000B2010E9447014BE750E060E081E00E947B
:100340007B010E948F00C82F8F33D9F345E850E01E
:1003500069E081E00E947B018C2F0E9432010E94A3
:100360004900FDCF2AB128612AB920B5266820BDF1
:10037000DC01CB01880F991FAA1FBB1F880F991F93
:10038000AA1FBB1F9C01AD01220F331F441F551F25
:10039000220F331F441F551F60E074E284EF90E08A
:1003A0000E94E4018FEF820F89B9DA01C901019738
:1003B000A109B109892F9A2FAB2FBB2780BD0895C2
:1003C0005F9BFECF8CB10895A1E21A2EAA1BBB1B26
:1003D000FD010DC0AA1FBB1FEE1FFF1FA217B30711
:1003E000E407F50720F0A21BB30BE40BF50B661F27
:1003F000771F881F991F1A9469F7609570958095EB
:1004000090959B01AC01BD01CF010895F894FFCFF9
:100410003734312E3835323039363345504F444336
:100420004865617274526174653A0057656C636F18
:0C0430006D652120004D6F64653A0000EE
:00000001FF
