:100000000C942A000C9447000C9447000C94470071
:100010000C9447000C9447000C9447000C94470044
:100020000C9447000C9447000C9447000C94470034
:100030000C9447000C9447000C9447000C94470024
:100040000C9447000C9447000C9447000C94470014
:100050000C94470011241FBECFE5D8E0DEBFCDBF12
:1000600010E0A0E6B0E0ECE1F3E002C005900D92F4
:10007000AC36B107D9F720E0ACE6B0E001C01D9284
:10008000AC36B207E1F70E9449000C948C010C9445
:100090000000CF93DF93CDB7DEB760970FB6F8942B
:1000A000DEBF0FBECDBF81B38F7781BB81B38F7BA6
:1000B00081BB81E081BBC12CD12C00E010E080E04D
:1000C00090E0E12CF12CA12CB12C02C080E090E05A
:1000D000879B0CC0E114F10461F424E022BB2FEFF4
:1000E000A21AB20AEE24E394F12C03C012BAE12C56
:1000F000F12C869BEBCF009759F78FEFC81AD80ADF
:100100009AE0C916D1040CF452C00115110541F44E
:100110008501000F111F0A0D1B1D000F111F0FC0BD
:10012000C501880F991F8A0D9B1D880F991F080F05
:10013000191F112314F40F5F1F4F159507954AE0FF
:10014000BE016F5F7F4FC8010E9457010B30110540
:10015000A4F060E875E280E090E00E94ED00CE013E
:1001600001960E941F018FE39CE90197F1F700C0FF
:10017000000080E00E941B0113C060E875E280E08F
:1001800090E00E94ED0080E690E00E941F018FE366
:100190009CE90197F1F700C0000080E00E941B017C
:1001A000C12CD12C81E090E0A12CB12C91CF60E842
:1001B00075E280E090E00E94ED0084E690E00E940D
:1001C0001F018FE39CE90197F1F700C0000080E078
:1001D0000E941B0181E090E07BCF2AB128612AB9FF
:1001E00020B5266820BDDC01CB01880F991FAA1F0E
:1001F000BB1F880F991FAA1FBB1F9C01AD01220FB7
:10020000331F441F551F220F331F441F551F60E02B
:1002100074E284EF90E00E9435018FEF820F89B97C
:10022000DA01C9010197A109B109892F9A2FAB2FD2
:10023000BB2780BD08955D9BFECF8CB908950F93B9
:100240001F93CF93DF938C01C0E0D0E003C00E94E6
:100250001B012196F801EC0FFD1F80818111F7CF62
:10026000DF91CF911F910F910895A1E21A2EAA1B41
:10027000BB1BFD010DC0AA1FBB1FEE1FFF1FA21756
:10028000B307E407F50720F0A21BB30BE40BF50B53
:10029000661F771F881F991F1A9469F760957095DC
:1002A000809590959B01AC01BD01CF010895BB27BE
:1002B0004A3031F4992322F4BDE2909581959F4F05
:1002C0000C946301BB27FB015527AA27880F991FB0
:1002D000AA1FA41710F0A41B83955051B9F7A05D75
:1002E000AA3308F0A95DA193009779F7B111B193F2
:1002F0001192CB010C947C01DC01FC01672F719100
:100300007723E1F7329704C07C916D9370836291FB
:0C031000AE17BF07C8F30895F894FFCFA4
:0C031C004E2E4D002E2E2E2E2E2E0000F8
:00000001FF
